{
  "contractName": "DappTokenSale",
  "abi": [
    {
      "inputs": [
        {
          "internalType": "contract DappToken",
          "name": "_tokenContract",
          "type": "address"
        }
      ],
      "stateMutability": "nonpayable",
      "type": "constructor"
    },
    {
      "inputs": [],
      "name": "tokenContract",
      "outputs": [
        {
          "internalType": "contract DappToken",
          "name": "",
          "type": "address"
        }
      ],
      "stateMutability": "view",
      "type": "function"
    }
  ],
  "bytecode": "0x608060405234801561001057600080fd5b506040516102993803806102998339818101604052810190610032919061012e565b336000806101000a81548173ffffffffffffffffffffffffffffffffffffffff021916908373ffffffffffffffffffffffffffffffffffffffff16021790555080600160006101000a81548173ffffffffffffffffffffffffffffffffffffffff021916908373ffffffffffffffffffffffffffffffffffffffff1602179055505061015b565b600080fd5b600073ffffffffffffffffffffffffffffffffffffffff82169050919050565b60006100e9826100be565b9050919050565b60006100fb826100de565b9050919050565b61010b816100f0565b811461011657600080fd5b50565b60008151905061012881610102565b92915050565b600060208284031215610144576101436100b9565b5b600061015284828501610119565b91505092915050565b61012f8061016a6000396000f3fe6080604052348015600f57600080fd5b506004361060285760003560e01c806355a373d614602d575b600080fd5b60336047565b604051603e919060e0565b60405180910390f35b600160009054906101000a900473ffffffffffffffffffffffffffffffffffffffff1681565b600073ffffffffffffffffffffffffffffffffffffffff82169050919050565b6000819050919050565b600060ac60a860a484606d565b608d565b606d565b9050919050565b600060bc826097565b9050919050565b600060cc8260b3565b9050919050565b60da8160c3565b82525050565b600060208201905060f3600083018460d3565b9291505056fea26469706673582212201c295c2964c4e73e28bf6f4734caa66b7354183c5eea1b8144d8fb0c3a79d16964736f6c634300080b0033",
  "immutableReferences": {},
  "source": "pragma solidity >=0.4.2 <0.9.0; \r\n\r\nimport \"./DappToken.sol\";\r\n\r\ncontract DappTokenSale {\r\n\r\n\taddress admin;\r\n\tDappToken public tokenContract;\r\n\r\n\tconstructor(DappToken _tokenContract) public {\r\n\t\t//Assign an admin \r\n\t\tadmin = msg.sender; \r\n\t\ttokenContract = _tokenContract;\r\n\t\t//Token Contract\r\n\r\n\r\n\t\t//Token Price\r\n\t} \r\n}",
  "sourcePath": "D:\\Study\\crypto\\token_sale\\contracts\\DappTokenSale.sol",
  "compiler": {
    "name": "solc",
    "version": "0.8.11+commit.d7f03943.Emscripten.clang"
  },
  "schemaVersion": "3.4.5",
  "updatedAt": "2022-03-10T13:00:24.909Z",
  "devdoc": {
    "kind": "dev",
    "methods": {},
    "version": 1
  },
  "userdoc": {
    "kind": "user",
    "methods": {},
    "version": 1
  }
}