{
  "contractName": "DappTokenSale",
  "abi": [
    {
      "inputs": [
        {
          "internalType": "contract DappToken",
          "name": "_tokenContract",
          "type": "address"
        },
        {
          "internalType": "uint256",
          "name": "_tokenPrice",
          "type": "uint256"
        }
      ],
      "stateMutability": "nonpayable",
      "type": "constructor"
    },
    {
      "anonymous": false,
      "inputs": [
        {
          "indexed": false,
          "internalType": "address",
          "name": "_buyer",
          "type": "address"
        },
        {
          "indexed": false,
          "internalType": "uint256",
          "name": "_amount",
          "type": "uint256"
        }
      ],
      "name": "Sell",
      "type": "event"
    },
    {
      "inputs": [],
      "name": "tokenContract",
      "outputs": [
        {
          "internalType": "contract DappToken",
          "name": "",
          "type": "address"
        }
      ],
      "stateMutability": "view",
      "type": "function",
      "constant": true
    },
    {
      "inputs": [],
      "name": "tokenPrice",
      "outputs": [
        {
          "internalType": "uint256",
          "name": "",
          "type": "uint256"
        }
      ],
      "stateMutability": "view",
      "type": "function",
      "constant": true
    },
    {
      "inputs": [],
      "name": "tokensSold",
      "outputs": [
        {
          "internalType": "uint256",
          "name": "",
          "type": "uint256"
        }
      ],
      "stateMutability": "view",
      "type": "function",
      "constant": true
    },
    {
      "inputs": [
        {
          "internalType": "uint256",
          "name": "_numberOfTokens",
          "type": "uint256"
        }
      ],
      "name": "buyTokens",
      "outputs": [],
      "stateMutability": "payable",
      "type": "function",
      "payable": true
    }
  ],
  "bytecode": "0x608060405234801561001057600080fd5b506040516105543803806105548339818101604052810190610032919061016c565b336000806101000a81548173ffffffffffffffffffffffffffffffffffffffff021916908373ffffffffffffffffffffffffffffffffffffffff16021790555081600160006101000a81548173ffffffffffffffffffffffffffffffffffffffff021916908373ffffffffffffffffffffffffffffffffffffffff1602179055508060028190555050506101ac565b600080fd5b600073ffffffffffffffffffffffffffffffffffffffff82169050919050565b60006100f1826100c6565b9050919050565b6000610103826100e6565b9050919050565b610113816100f8565b811461011e57600080fd5b50565b6000815190506101308161010a565b92915050565b6000819050919050565b61014981610136565b811461015457600080fd5b50565b60008151905061016681610140565b92915050565b60008060408385031215610183576101826100c1565b5b600061019185828601610121565b92505060206101a285828601610157565b9150509250929050565b610399806101bb6000396000f3fe60806040526004361061003f5760003560e01c80633610724e14610044578063518ab2a81461006057806355a373d61461008b5780637ff9b596146100b6575b600080fd5b61005e600480360381019061005991906101a3565b6100e1565b005b34801561006c57600080fd5b50610075610136565b60405161008291906101df565b60405180910390f35b34801561009757600080fd5b506100a061013c565b6040516100ad9190610279565b60405180910390f35b3480156100c257600080fd5b506100cb610162565b6040516100d891906101df565b60405180910390f35b80600360008282546100f391906102c3565b925050819055507f5e5e995ce3133561afceaa51a9a154d5db228cd7525d34df5185582c18d3df09338260405161012b92919061033a565b60405180910390a150565b60035481565b600160009054906101000a900473ffffffffffffffffffffffffffffffffffffffff1681565b60025481565b600080fd5b6000819050919050565b6101808161016d565b811461018b57600080fd5b50565b60008135905061019d81610177565b92915050565b6000602082840312156101b9576101b8610168565b5b60006101c78482850161018e565b91505092915050565b6101d98161016d565b82525050565b60006020820190506101f460008301846101d0565b92915050565b600073ffffffffffffffffffffffffffffffffffffffff82169050919050565b6000819050919050565b600061023f61023a610235846101fa565b61021a565b6101fa565b9050919050565b600061025182610224565b9050919050565b600061026382610246565b9050919050565b61027381610258565b82525050565b600060208201905061028e600083018461026a565b92915050565b7f4e487b7100000000000000000000000000000000000000000000000000000000600052601160045260246000fd5b60006102ce8261016d565b91506102d98361016d565b9250827fffffffffffffffffffffffffffffffffffffffffffffffffffffffffffffffff0382111561030e5761030d610294565b5b828201905092915050565b6000610324826101fa565b9050919050565b61033481610319565b82525050565b600060408201905061034f600083018561032b565b61035c60208301846101d0565b939250505056fea264697066735822122085d8df7eeead68b329c0194b0fceabfaac609f960cc1c94b33cdfc3a9289305464736f6c634300080b0033",
  "immutableReferences": {},
  "source": "pragma solidity >=0.4.2 <0.9.0; \r\n\r\nimport \"./DappToken.sol\";\r\n\r\ncontract DappTokenSale {\r\n\r\n\taddress admin;\r\n\tDappToken public tokenContract;\r\n\tuint256 public tokenPrice;\r\n\tuint256 public tokensSold;\r\n\r\n\tevent Sell(address _buyer, uint256 _amount);\r\n\r\n\tconstructor(DappToken _tokenContract, uint256 _tokenPrice) public {\r\n\t\t//Assign an admin \r\n\t\tadmin = msg.sender; \r\n\t\r\n\t\t//Token Contract\r\n\t\ttokenContract = _tokenContract;\r\n\r\n\t\t//Token Price\r\n\t\ttokenPrice = _tokenPrice;\r\n\t} \r\n\r\n\t// Buy Tokens\r\n\tfunction buyTokens(uint256 _numberOfTokens) public payable {\r\n\r\n\t\t//Require that value is equal to tokens\r\n\r\n\t\t// Require that there are enough tokens in the contact\r\n\r\n\t\t//Require that a transfer is successful \r\n\r\n\t\t//keep track of number of tokens sold\r\n\t\ttokensSold += _numberOfTokens;\r\n\r\n\t\t// emit sell event\r\n\t\temit Sell(msg.sender, _numberOfTokens);\r\n\r\n\t}\r\n}",
  "sourcePath": "D:\\Study\\crypto\\token_sale\\contracts\\DappTokenSale.sol",
  "compiler": {
    "name": "solc",
    "version": "0.8.11+commit.d7f03943.Emscripten.clang"
  },
  "schemaVersion": "3.4.5",
  "updatedAt": "2022-03-11T10:17:38.849Z",
  "networkType": "ethereum",
  "devdoc": {
    "kind": "dev",
    "methods": {},
    "version": 1
  },
  "userdoc": {
    "kind": "user",
    "methods": {},
    "version": 1
  }
}